:020000040800F2
:1000000028100020A1010008E32A00089327000817
:10001000E12A00085F0800086531000800000000C0
:100020000000000000000000000000001B2B000882
:10003000C509000800000000192B00081D2B00084E
:10004000BB010008BB010008BB010008BB010008A0
:10005000BB010008BB010008BB010008BB01000890
:10006000BB010008BB010008BB010008BB01000880
:1000700009090008BB01000815090008BB010008B8
:10008000BB010008BB010008BB010008BB01000860
:1000900061080008BB010008BB010008BB010008A3
:1000A000BB010008BB010008BB010008BB01000840
:1000B000C52B0008D12B0008BB010008BB010008BC
:1000C000BB010008BB010008BB010008BB01000820
:1000D000BB010008BB010008BB0100085931000842
:1000E000BB010008BB010008BB010008BB01000800
:1000F000BB010008BB010008BB010008BB010008F0
:10010000BB010008BB010008BB010008BB010008DF
:10011000BB010008BB010008BB010008BB010008CF
:10012000BB010008BB010008BB010008BB010008BF
:10013000BB010008BB010008BB010008BB010008AF
:10014000BB010008BB010008BB010008BB0100089F
:10015000BB010008BB010008BB010008BB0100088F
:10016000BB010008BB010008BB010008BB0100087F
:10017000BB010008BB010008BB0100080000000033
:10018000BB010008BB010008DFF810D000F004FB41
:1001900000480047A13F0008AFF30080281000206E
:1001A0000648804706480047FEE7FEE7FEE7FEE711
:1001B000FEE7FEE7FEE7FEE7FEE7FEE7B52B0008F9
:1001C000890100082DE9F05F0546002092469B4614
:1001D00088460646814640241BE02846414647465D
:1001E000224600F09BF953465A46C01A914110D35B
:1001F00011461846224600F082F92D1A67EB0108D5
:100200004F4622460120002100F079F917EB000942
:100210004E41201EA4F10104DFDC484631462A4647
:100220004346BDE8F09F40EA01039B0703D009E085
:1002300008C9121F08C0042AFAD203E011F8013BD2
:1002400000F8013B521EF9D27047D2B201E000F82B
:10025000012B491EFBD270470022F6E710B513466A
:100260000A4604461946FFF7F0FF204610BD2DE967
:10027000FE4F804681EA0300C00F0C46009021F03B
:10028000004123F00045B8EB0200A94105D24046E9
:10029000214690461C460B46024623F00040104380
:1002A00047D0270DC7F30A00C3F30A510290401A42
:1002B000019040286BDAC3F3130040F4801B0098D0
:1002C000924620B10023D2EB030A63EB0B0B01989B
:1002D0005946C0F14002504600F011F906460D465D
:1002E00050465946019A00F029F910EB0800614187
:1002F000002487EA115284EAE7731A4340D0009A37
:1003000062B3019A012A4FEA075215DC001B61EB28
:1003100002014FF0004202EA0752CDE90042001C00
:1003200041F5801132462B4600F060F903B0BDE87C
:10033000F08F40462146F9E7001B61EB0201001CEB
:1003400041F5801300185B412018A2F5001747EB18
:10035000030140EAD570B6196D4111E06D084FEA0E
:10036000360645EAC0754FEA0752001B61EB0201F1
:10037000001C41F5801149084FEA30000019514135
:1003800032462B4603B0BDE8F04F00F020B900988C
:10039000012240000023D0EB020263EBE0730098DF
:1003A00021464FEAE074B8EB000061EB0401E9E795
:1003B00083F000435BE781F0004158E72DE9FE4FF1
:1003C00081EA030404F0004421F0004100944FF05E
:1003D000000B23F0004350EA01045ED052EA03040C
:1003E0005BD0C3F30A54C1F30A552C44A4F2F3348E
:1003F0000194A0FB0254C1F3130141F48011C3F333
:10040000130343F4801301FB024400FB034E840AF0
:10041000970A44EA815447EA8357A4FB0768029588
:100420008D0A05FB07854FEA932C04FB0C54270526
:10043000029D4FEA065847EA1637B5EB08056EEB02
:10044000070C870E920E47EA811742EA8312A7FB38
:100450000201B6EB0B0164EB00042B0D43EA0C33F5
:100460005E1844EB1C50DA465146E7FB0201C5F327
:1004700013044FEA0B3343EA14534FEA0432019C4E
:1004800043EA0603A4F10C040294009CCDE900B4F5
:1004900000F0ACF803B0BDE8F08F00200146F9E7AA
:1004A00000F0004230F000400AD0C10D01F560714B
:1004B000C0F3160042EA0151C208400711437047D9
:1004C00000200146704701F0004330B421F00041A4
:1004D00050EA010206D00A0DA2F56072C1F31301C1
:1004E000002A02DC30BC00207047440F44EAC104FB
:1004F000C100E01830BC00EBC25000F031B8202A37
:1005000004DB203A00FA02F1002070479140C2F16A
:10051000200320FA03F3194390407047202A04DB9C
:10052000203A21FA02F00021704721FA02F3D0406C
:10053000C2F120029140084319467047202A06DB89
:10054000CB17203A41FA02F043EAE07306E041FAA1
:1005500002F3D040C2F1200291400843194670478F
:100560000029A8BF7047401C490008BF20F00100C7
:10057000704710B4B0FA80FC00FA0CF050EA0104A5
:1005800004BF10BC704749B1CCF1200421FA04F437
:1005900011FA0CF118BF012121430843A3EB0C0110
:1005A000CB1D4FEA00614FEA102042BF002010BC73
:1005B000704700EBC35010440029A4BF10BC704723
:1005C000401C490008BF20F0010010BC704710B566
:1005D000141E73F1000408DA401C41F10001921866
:1005E0005B411A4301D120F0010010BD2DE9F04D0F
:1005F00092469B4611B1B1FA81F202E0B0FA80F264
:1006000020329046FFF77BFF04460F4640EA0A007F
:1006100041EA0B0153465A46084313D0114653EAA8
:10062000010019D0C8F140025046FFF777FF054698
:100630000E46504659464246FFF761FF084305D033
:10064000012004E020463946BDE8F08D0020054336
:1006500046EAE0762C4337430A986305E40AA0EBA8
:1006600008000022FD0A44EA47540A3002D500205F
:100670000146E9E7010510196941DDE9084500195E
:100680006941BDE8F04DA2E72DE9F04D81EA030490
:1006900004F0004B21F0004514464FF0000A23F00F
:1006A000004150EA050220D054EA01021DD0C5F3F2
:1006B0000A570246C5F31303C1F31300C1F30A56E8
:1006C00040F4801543F48013A7EB0608101BD646B0
:1006D00008F2FD3873EB050002D308F1010801E0D0
:1006E00092185B41B8F1000F03DA00200146BDE823
:1006F000F08D00204FF48011064684460EE0171B53
:1007000073EB050705D3121B63EB050306434CEAA5
:10071000010C49084FEA300092185B4150EA01078A
:10072000EDD152EA030012D082EA040083EA050107
:10073000084305D0101BAB4106D20122002306E07E
:1007400000224FF0004302E06FF0010253101AEB59
:1007500006004CEB085110EB0A0041EB0B01BDE821
:10076000F04DFFF734BF000030B5041E71F10004F6
:1007700004DB4FF00044404264EB0101141E73F1AE
:10078000000405DB1C464FF00043524263EB0403B8
:100790008B4208BF824230BD064C074D06E0E06840
:1007A00040F0010394E8070098471034AC42F6D3B8
:1007B000FFF7EEFC88460008A84600082DE9F04D3A
:1007C00000231A461B1A8A4103DB00200146BDE8BC
:1007D000F08DC1F30A52C1F3130141F480154FF0BB
:1007E000000BD10702D100186D41521E00270446AC
:1007F00040F2FF11384601EB620A3E46804602464F
:1008000000204FF48011FFF789FEC2197141BB1817
:1008100046EB0100B4EB030C75EB000C04D3E41AB7
:1008200065EB000517460E46241908F101006D41DD
:1008300080463428E3DDF91946EB0600091BA84180
:1008400003D24FF0FF32134601E0002213461BEBA8
:10085000070046EB0A51BDE8F04DFFF7B8BEFEE7D2
:10086000014800F0C6BA00002001002000B58DB09C
:1008700002F00CF800200A900B90BDF82A104FF4FB
:10088000A95201F01F01ADF82A10BDF82E1001F099
:100890001F01ADF82E100121CDE9050100924FF4A2
:1008A000B752019207904FF4103202920B4ACDE9F1
:1008B00003200E20CDE908106946094800F098F998
:1008C00008B100F080F8064800F084FC0DB0022169
:1008D00003485DF804EB00F010B90000204002006E
:1008E0002001002008B5074A022311600021516051
:1008F0001161C2E9021311750A466B46014900F005
:100900000EF908BD08010020014800F0F1BC00000C
:10091000B0020020014800F0EBBC000010030020F2
:1009200001681823CAB2103AB2FBF3F2054B6FF319
:100930000901032A9B5CC36500D9091D816508462E
:10094000704700007441000810B5014600208B6913
:100950008A6A4FF0C07453B1B3F5005F15D072B11D
:10096000012A0CD0022A0AD0032A09D104E01AB1C4
:10097000012A06D0022A03D1C96AC90100D5012083
:1009800010BDC96AA142FAD010BD002AF7D0012AD1
:10099000F2D0022AF3D0032AF3D010BD30B5046898
:1009A000256825F480252560046863608368402BF2
:1009B000036803D099600068C26030BD9A60006827
:1009C000C16030BD704772B6FEE70169491C016124
:1009D00000214160704710B4C268002A0BDD4268F4
:1009E000072A08D1C26A00F13C03541CC462D154E6
:1009F000C16AFF2902D910BCFFF7E7BFC168491ED1
:100A0000C16010BC704710B40268022A0BD00023EA
:100A10000222C362C0E900231A468418521C84F8DB
:100A20003C30FF2AF9DD8269521C826110BC00F063
:100A300007B800214160C1608160C16201627047F6
:100A400030B5044640680A46092805D32046FFF71A
:100A5000BCFF6FF0020030BD04F1300142540020B1
:100A60006168431E09293BD2DFE801F0050F131628
:100A70001922252B38002046FFF7DBFFFD2A2AD05C
:100A8000FC2A2DD10120606025E00220C4E901028A
:100A900021E00320E260F6E704206261F3E762628E
:100AA000E16809B10520EEE76060E069401D21E0E2
:100AB0000620A262E7E7A06A42EA0020A0620720BF
:100AC000E1E7E168082541B111462046FFF783FFC1
:100AD000E06800B96560002030BD6560FD2A04D083
:100AE0002046FFF772FF184630BD6060E16AE0699A
:100AF00008440830E061012030BD90F82020012A30
:100B000007D0022A05D0416A41F4802141620120C8
:100B10007047006842690A43426100207047F0B59F
:100B200090F820500468A468012D05D0022D03D050
:100B3000416A41F4802157E014F0406F01D1E50093
:100B40004FD5C4F301640125A5401D608D684FF4A5
:100B5000C0739DB1CE6835434E6845EAC605066848
:100B600003EB0417F5514FF4C275076805EB041544
:100B70000E697E51097D012905D009E00E88CD68F6
:100B800045EA4655EBE701684E5946F480764E51EA
:100B90001179D579567941EA056195792D0445EAAF
:100BA000062529434FF4C676056806EB0416A951BD
:100BB0001178D57841EA0561957852782D0445EA97
:100BC000022211434FF4C475026805EB041551511C
:100BD000006803EB0411425842F001024250002029
:100BE000F0BD416A41F4001141620120F0BD0000F6
:100BF00010B590F82020012A07D0022A05D0416ABA
:100C000041F480214162012010BD3B48D0F8002210
:100C100042F00102C0F80022D0F8002222F47C52F7
:100C2000C0F80022D0F800224B6A42EA0322C0F842
:100C300000220A7D02F01F0301229A40D0F81C32E4
:100C40009343C0F81C32CB69B3B9D0F80C3293434C
:100C5000C0F80C328C894B6864F31F434C6900EB7D
:100C6000C404C4F840320C890B6864F31F434C6918
:100C700000EBC404C4F84432CB69012B16D1D0F880
:100C80000C321343C0F80C320C884B6864F31F43DA
:100C90004C6900EBC404C4F840320C89CB6864F39F
:100CA0001F434C6900EBC404C4F844328B69002B29
:100CB000D0F804320ED01343C0F804320B69002B75
:100CC000D0F8143208D01343C0F81432096A01294D
:100CD00004D008E09343EFE79343F5E7D0F81C1204
:100CE0001143C0F81C12D0F8001221F00101C0F825
:100CF0000012002010BD000000640040704770B575
:100D000090F82040012C05D0022C03D0416A41F418
:100D1000802128E0046809B32469A40720D04FF497
:100D2000D874056804EB01142D5915F0040595607D
:100D300005682D591AD0ED08556005682C5904F046
:100D40000204D4604FF4DA74056804EB01142E59E0
:100D500006F00F06082E0CD308250DE0E468DCE74A
:100D6000416A41F400114162012070BD6D0D1560B2
:100D7000E3E72D5905F00F05156105682D59C5F3F9
:100D80000725956105682C59240C54614FF4DC72D9
:100D9000046802EB0112A4581C700468A458240AC9
:100DA0005C700468A458240C9C700468A258120E4D
:100DB000DA704FF4DE72046802EB0112A4581C7161
:100DC0000468A458240A5C710468A458240C9C711B
:100DD0000468A258120EDA71006829B1016941F065
:100DE00020010161002070BDC16841F02001C16097
:100DF000F8E72DE9F05F0546006800244669D0F861
:100E000004908768D0F80CB0D0F810A0D0F8188003
:100E1000F10748D0F90714D001218160B80703D544
:100E2000284600F004FA0CE0780702D54FF400647D
:100E300007E0380702D54FF4805402E0284600F05E
:100E4000F5F9F80516D529684FF480708860B80563
:100E500003D5284600F0EDF90CE0780502D544F4FE
:100E6000005407E0380502D544F4804402E02846E7
:100E700000F0DEF9F80316D529684FF48030886059
:100E8000B80303D5284600F0D6F90CE0780302D564
:100E900044F4004407E0380302D544F4803402E00F
:100EA000284600F0C7F9300707D55FEACB6004D5C4
:100EB0002968102044F40074C86070074FF00807D8
:100EC00007D55FEA0B7004D52868C760284600F094
:100ED00057F9B00706D52868C068800702D02846B1
:100EE00000F050F9700607D55FEACA6004D529689A
:100EF000102044F480640861B00607D55FEA0A70E8
:100F000004D528680761284600F060F9F00606D588
:100F100028680069800702D0284600F058F9B0031D
:100F200008D55FEAC96005D52968102048602846C1
:100F300000F04EF9F00307D55FEA097004D5286880
:100F40004760284600F078F9300446D55FEA4970DA
:100F500040D5F00504D55FEAC87001D044F0010423
:100F6000B00504D55FEA887001D544F0020470052D
:100F700004D55FEA487001D544F00404300529D552
:100F800018F0700F26D008F07000402815D006DC4D
:100F9000102809D020280AD0302816D10AE050287D
:100FA0000ED0602811D10EE044F008040DE044F0AA
:100FB00010040AE044F0200407E044F0400404E098
:100FC00044F0800401E044F480742868816921F0D1
:100FD00070018161296804204860002C05D0686A8E
:100FE000204368622846FFF789FEBDE8F09F70B590
:100FF000040003D094F8200010B104E0012070BD7B
:10100000204600F081F82068016841F0010101608C
:1010100000F0D8FB0546052604E000F0D3FB401B9A
:101020000A2811D820684068C007F6D020680168F7
:1010300021F00201016000F0C5FB05460BE000F065
:10104000C1FB401B0A2806D9606A40F40030606288
:1010500084F82060D2E7206840688007EFD4207EC3
:101060000128206801683DD021F080010160607E88
:1010700001282068016838D021F040010160A07E7D
:1010800001282068016833D021F020010160E07E52
:101090000128206801682ED041F010010160207FF6
:1010A00001282068016829D021F008010160607FD3
:1010B00001282068016824D021F004010160D4E9EE
:1010C00002010843D4E90412114308436168491E30
:1010D00008432168C86100206062012084F8200074
:1010E000002070BD41F08001C0E741F04001C5E73C
:1010F00041F02001CAE721F01001CFE741F00801DB
:10110000D4E741F00401D9E710B586B004461421B4
:101110006846FFF7A1F817492068884227D116488A
:101120000021026842F000720260006800F0007066
:10113000059011481038026842F008020260006809
:10114000022200F0080005900320CDE90210CDE94D
:101150000002092004906946084800F03BFA00228A
:101160000621142000F09CFB142000F08BFB06B03D
:1011700010BD00000064004040380240000C0240F6
:101180007047000010B50E4904460068096888429F
:1011900014D10C4B0021A3F11C022046FFF7AFFD38
:1011A00000280BD1084801680648543802F05EFE5A
:1011B0002046BDE810400221FFF79FBC10BD000093
:1011C000200100200001002000000020704770472F
:1011D0007047000070B5044690F82000012804D044
:1011E000606A40F40020606218E0022084F8200069
:1011F0002068016821F00101016000F0E3FA054672
:101200000EE000BF00F0DEFA401B0A2808D9606A31
:1012100040F400306062052084F82000012070BD99
:1012200020684068C007EDD1606270BD70477047AC
:10123000704770477047704770472DE9F04104468A
:10124000876D00F0BFFA064694F8350000250228A5
:1012500006D08020606584F834500120BDE8F0811C
:101260002068016821F0160101602068416921F0C1
:1012700080014161206C08B9A06C20B12068016830
:1012800021F0080101602068016821F0010101607E
:101290000CE000F097FA801B052807D92020606534
:1012A000032084F8350084F83450D7E720680068BC
:1012B000C007EED194F85C103F208840B860012050
:1012C00084F8350084F834500020C7E790F83510D2
:1012D000022903D08021416501207047052180F853
:1012E00035100068016821F001010160002070479D
:1012F0002DE9F84304464FF00009CDF8009063480B
:101300004FF41651A56D0068B0FBF1F72E6894F804
:101310005C10082000FA01F131420FD021680A6800
:1013200052070BD50A6822F004020A6094F85C1098
:101330008840A860606D40F00100606594F85C1022
:101340004FF0010808FA01F0304208D021684969DD
:10135000090604D5A860606D40F00200606594F84D
:101360005C1004208840304208D021680968890751
:1013700004D5A860606D40F00400606594F85C10CE
:1013800010208840304218D021680968090714D518
:10139000A86020680168490304D50068000308D5E7
:1013A000A16C07E00168C90503D4016821F00801B8
:1013B0000160216C09B12046884794F85C10202018
:1013C0008840304231D021680968C9062DD5A8600F
:1013D00094F8350005282068016806D0490347D5F0
:1013E000006800031DD4616C1CE021F0160101604F
:1013F0002068416921F080014161206C08B9A06C2E
:1014000020B12068016821F00801016094F85C10A7
:101410003F208840A86084F8358084F83490216D9E
:101420001FE0E16B09B120468847606D00282BD092
:10143000606DC00714D0052084F83500206801686D
:1014400021F0010101600098401C0090B84203D8CF
:1014500020680068C007F6D184F8358084F834909D
:10146000E16C002910D001B02046BDE8F0430847E8
:101470000168C905D5D4016821F01001016084F824
:10148000358084F83490CCE7BDE8F8831000002064
:101490002DE9F041044600F095F906465CB10220C2
:1014A00084F83500002584F834502068016821F064
:1014B000010101600DE00120BDE8F08100F082F93A
:1014C000801B052805D920206065032084F835009D
:1014D000F2E720680068C007F0D122681168204850
:1014E0000140D4E901031843D4E9033633431843D8
:1014F00063691843A3691843E3691843236A1843CF
:101500000843616A042903D1D4E90B131943084342
:10151000106020684069666A20F0070130460E437B
:10152000012704280CD1A06A0643E06A40B1204696
:10153000FFF70AFA20B14020606584F83570BAE7F9
:10154000206846612046FFF7EBF994F85C203F21C4
:1015500091408160656584F835700020ACE700003B
:101560003F8010F02DE9F0410446866D90F834007C
:10157000002501280DD0012084F8340094F835703E
:101580000020012F07D084F8340002252846BDE84A
:10159000F0810220FBE7022784F835706065204661
:1015A000FFF7FCF994F85C103F208840B060206899
:1015B000016841F016010160206C20B120680168CB
:1015C00041F0080101602068016841F001010160FB
:1015D000DCE700002DE9F84FDFF8BCA1002201256F
:1015E00003264FF00F090AF1040BAAF1040E00BF05
:1015F0000B6805FA02F42340A34270D10F7907F07B
:101600000307012F01D0022F16D187684FEA420845
:1016100006FA08FC27EA0C07D1F80CC00CFA08FC03
:101620004CEA070CC0F808C04768A7430C79C4F31C
:10163000001494403C4344600C79E443A4070AD06E
:10164000C4684FEA420C06FA0CF7BC438F6807FAED
:101650000CF72743C7600C7904F00304022C12D165
:10166000D40800EB840CDCF820405707FF0E09FA81
:1016700007F824EA0804D1F8108008FA07F848EAC5
:101680000408CCF8208004684FEA420C06FA0CF7F4
:10169000BC430F7907F0030707FA0CF727430760ED
:1016A0004C6814F4403F70D03C4C276847F48047A6
:1016B0002760246822F0030704F480440094384C27
:1016C00007EB040CDCF8084897074FEA177809FA8B
:1016D00008F7BC43334FB84202D1002724E054E05E
:1016E000314FB84201D101271EE0304FB84201D13D
:1016F000022719E02E4FB84201D1032714E02D4FE5
:10170000B84201D104270FE02B4FB84201D1052781
:101710000AE02A4FB84201D1062705E0284FB84217
:1017200001D1072700E0082707FA08F72743CCF87C
:101730000878DAF800405746D1F804C09C435FEAC5
:10174000CC2C00D51C433C60DBF800405F46D1F850
:1017500004C09C435FEA8C2C00D51C433C60DEF83F
:1017600000407746D1F804C09C435FEA8C3C00D52A
:101770001C433C60084F083F3C68D1F804C09C43C0
:101780005FEACC3C00D51C433C60521C102AFFF49D
:101790002FAFBDE8F88F0000083C014044380240FC
:1017A00000300140000002400004024000080240F6
:1017B000000C0240001002400014024000180240D9
:1017C000001C0240014880687047000004000020AF
:1017D000024881680278114481607047040000204B
:1017E0000B4810B5016841F400710160016841F4D3
:1017F00080610160016841F480710160032000F0A4
:101800006FF80F2000F006F800F024F8002010BD5B
:10181000003C024070B50D4D04464FF47A712878B3
:10182000B1FBF0F00A490968B1FBF0F000F00AFBE7
:1018300048B9102C07D200222146501E00F030F883
:1018400000206C6070BD012070BD0000040000200D
:10185000100000200A4808B5016841F48041016089
:10186000006800F4804000900548001F016841F0C6
:1018700080510160006800F08050009008BD0000B9
:1018800044380240002809DB00F01F02012191408A
:101890004009800000F1E020C0F80011704700000E
:1018A000F0B40E4B1B680C46C3F30223C3F10705CB
:1018B000042D00D90425191D072901D2002300E0B9
:1018C000DB1E012606FA05F1491E214099409E4083
:1018D000761E16403143F0BC01F06EBC0CED00E00A
:1018E000064900F0070208684FF6FF03184040EA77
:1018F0000220034A10430860704700000CED00E02E
:101900000000FA052DE9F0470E46050065D0DFF826
:101910001481D8F80000F7B200F00700B04207D2F7
:1019200088F80070D8F8000000F00700B04254D1E9
:1019300028683D4C810712D5400703D5206840F444
:10194000E05020602878000703D5206840F460400C
:1019500020602068A96820F0F00008432060287803
:10196000C0072DD0304968680839012812D00228F4
:1019700013D0032811D00968890700292DDA2168BE
:1019800021F0030101432160FFF71CFF814641F272
:10199000883A0EE009688903EFE709688901ECE7F6
:1019A000FFF710FFA0EB0901514502D90320BDE864
:1019B000F0872068696800F00C00B0EB810FEFD170
:1019C000D8F80010404601F00701B14207D907706E
:1019D000006800F00700B04201D00120E7E7287856
:1019E000400705D52068E96820F4E05008432060EE
:1019F0002878000706D52068296920F4604040EA6D
:101A0000C100206000F038F82168084AC1F30311D2
:101A1000515CC8400649086006480068FFF7FAFEB6
:101A20000020C4E7003C0240083802407C41000826
:101A300010000020080000200448054900680968DB
:101A4000044AC1F38221515CC84070471000002055
:101A5000083802408C4100080448054900680968BC
:101A6000044AC1F34231515CC84070471000002065
:101A7000083802408C410008154810B5006810F085
:101A80000C02144813D04110042A0FD0082A0ED19A
:101A90000F4C241F2268236802F03F025B0207D527
:101AA0002068C0F38810A0FB010106E0084610BDC5
:101AB0002168C1F38811A1FB00010023FEF782FB1E
:101AC0002168C1F30141491C4900B0FBF1F010BD90
:101AD000083802400024F4002DE9F84F04006ED0CD
:101AE0002078DFF84C93C007A9F104054AD009F12A
:101AF00004000168C1F38101012908D00068C0F326
:101B0000810002280AD1D9F80000400206D52868D1
:101B1000800337D560680028E1D033E06068B0F515
:101B2000803F10D0B0F5A02F286810D020F480306E
:101B30002860286820F4802028606068A8B1FFF73A
:101B400041FE06460DE0286840F48030F4E740F49A
:101B500080202860F7E700BFFFF734FE801B642871
:101B600073D828688003F7D50CE0FFF72BFE0646F4
:101B700005E000BFFFF726FE801B6428F0D8286828
:101B80008003F7D42078DFF8AC8280074FF0000A9A
:101B90003ED5A748001D016811F00C0F08D0006861
:101BA000C0F3810002280BD1D9F80000400207D40D
:101BB0002868800716D5E068012800D112E033E1DB
:101BC000E068B8B10120C8F80000FFF7FBFD064649
:101BD00005E000BFFFF7F6FD801B0228C0D828688B
:101BE0008007F7D52868216920F0F80040EAC10095
:101BF00028600DE0C8F800A0FFF7E4FD064604E009
:101C0000FFF7E0FD801B02281FD828688007F7D463
:101C10002078000722D5864F87486169703771B1F7
:101C200001210160FFF7CEFD064604E0FFF7CAFD83
:101C3000801B022809D838688007F7D50EE0C0F865
:101C400000A0FFF7BFFD064605E082E0FFF7BAFD02
:101C5000801B02287DD838688007F7D42078400799
:101C600068D5DFF8CCB100270BF13C0BDBF80000A6
:101C7000C0000BD4DBF8001041F08051CBF800100D
:101C8000DBF80000012700F0805000906B4E3068B8
:101C9000C00510D4306840F480703060FFF792FDCA
:101CA000009005E0FFF78EFD0099401A022850D8F9
:101CB0003068C005F6D55E4EA0686C3601280FD09E
:101CC0000528306810D020F001003060306820F026
:101CD00004003060A068B8B1FFF774FD00900FE019
:101CE000306840F00100F4E740F004003060F7E7AE
:101CF000FFF768FD0099411A41F28830814266D8A9
:101D000030688007F4D50EE0FFF75CFD009007E037
:101D1000FFF758FD0099411A41F28830814256D8A8
:101D200030688007F4D42FB1DBF8001021F0805127
:101D3000CBF80010A069C8B33D49091D0968C1F37B
:101D4000810102294AD00228504607D0C8F8600015
:101D500000E03CE0FFF736FD04463BE04746C8F8AC
:101D60006000FFF72FFD064605E000BFFFF72AFDE4
:101D7000801B02282BD828688001F7D4D4E90701FA
:101D80000843A16A2E4A490802EB0141626A41EA0E
:101D90008211084394F82C1040EA0161C9F8001040
:101DA00001203866FFF70EFD044606E03EE000BF66
:101DB000FFF708FD001B022809D828688001F7D525
:101DC00034E000BFFFF7FEFC001B022802D903200D
:101DD000BDE8F88F28688001F4D427E00128F7D007
:101DE000D9F80000E26900F4800191421CD1226A16
:101DF00000F03F01914217D147F6C071626A01407D
:101E0000B1EB821F10D1A26A4FF0FF3300F44031D2
:101E100003EB5202B1EB024F06D194F82C1000F004
:101E20007060B0EB016F01D00120D1E70020CFE757
:101E30000438024000004742800E474200700040D4
:101E40000000FFFF10B5401EB0F1807F01D30120DC
:101E500010BD4FF0E02460610F21601701F0ACF974
:101E60000020A06107202061002010BD704770474E
:101E700070B590F83C20012A32D0012480F83C4013
:101E8000022280F83D2003685A689D6822F070069F
:101E90000A6832435A60134B02689A4214D0B2F176
:101EA000804F11D0104B9A420ED0104B9A420BD05B
:101EB0000F4B9A4208D00F4B9A4205D00E4B9A42D4
:101EC00002D00E4B9A4204D1496825F08003194391
:101ED000916080F83D40002180F83C10084670BDBC
:101EE000022070BD000001400004004000080040D6
:101EF000000C004000040140004001400018004078
:101F000010B5040003D094F83D0010B107E00120A3
:101F100010BD002084F83C00204600F01FF802208D
:101F200084F83D00211D206800F058FE012084F84F
:101F3000460084F83E0084F83F0084F8400084F8AE
:101F4000410084F8420084F8430084F8440084F897
:101F5000450084F83D00002010BD000008B5016870
:101F60001448B1F1804F14D0134A914220D1016836
:101F700041F0020101600068002200F002000090C0
:101F800011461D20FFF78CFC1D20BDE80840FFF71F
:101F900079BC016841F0010101600068002200F095
:101FA0000100009005211C20FFF77AFC1C20ECE7C3
:101FB00008BD0000403802400004004090F83D1089
:101FC000012901D001207047022180F83D100168ED
:101FD000CA6842F00102CA6000681149884214D000
:101FE000B0F1804F11D00F4988420ED00E4988427F
:101FF0000BD00E49884208D00D49884205D00D49C2
:10200000884202D00C49884204D1816801F007015E
:10201000062903D0016841F00101016000207047EA
:10202000000001400004004000080040000C004097
:1020300000040140004001400018004070B5044613
:1020400090F83C000025012817D0012684F83C6058
:10205000022084F83D002068826822F0770222F492
:102060007F4282600868502838D00DDC20284FD08D
:1020700005DC90B3102811D14AE0022070BD302851
:1020800046D040280AD13BE060282FD070280DD0E0
:10209000B0F5805F03D0B0F5005F12D0012584F861
:1020A0003D60002084F83C00284670BDCB68D1E933
:1020B0000121206800F0FEFD2068816841F0770171
:1020C00009E0CB68D1E90121206800F0F3FD206828
:1020D000816841F480418160E1E719E0CA6849689C
:1020E000206800F0F9FD5021206806E0CA684968C0
:1020F000206800F002FE6021206800F0E5FDCEE7D8
:10210000CA684968206800F0E7FD40212068F4E7CC
:10211000226801461046F0E770472DE9F041044679
:102120000068C66805694FF00007A90713D5B10715
:1021300011D5F91E01610120207720688069800790
:10214000204602D0FFF7E8FF04E000F07EF82046CA
:1021500000F07CF82777680716D5700714D521683A
:102160006FF004000861022020772068806910F475
:10217000407F204602D0FFF7CFFF04E000F065F873
:10218000204600F063F82777280715D5300713D5C8
:1021900021686FF008000861042020772068C0697A
:1021A0008007204602D0FFF7B7FF04E000F04DF8AB
:1021B000204600F04BF82777E80616D5F00614D530
:1021C00021686FF010000861082020772068C0693E
:1021D00010F4407F204602D0FFF79EFF04E000F09D
:1021E00034F8204600F032F82777E80708D0F007E7
:1021F00006D021686FF001000861204600F028F841
:10220000280608D5300606D521686FF080000861E1
:102210002046FFF72BFE680608D5700606D5216814
:102220006FF040000861204600F034F8A8060AD597
:10223000B00608D521686FF0200008612046BDE88F
:10224000F041FFF714BEBDE8F08170477047000011
:1022500010B50C4900680968884205D10A48006831
:10226000BDE8104000F096BA08490968884207D1D5
:10227000074800F037FCBDE81040054800F03CBCC2
:1022800010BD000048010020000000209001002047
:10229000AC0000207047704770470000F8B5016837
:1022A00004460868CA684B6910F00F0F4FF000052C
:1022B00059D003F0010602F49077374365D0C10787
:1022C00005D0D10503D5616C41F00101616441077E
:1022D00005D5D90703D0616C41F002016164810723
:1022E00005D5D90703D0616C41F004016164010791
:1022F00007D502F02001314303D0616C41F00801A1
:102300006164616C00293AD0800604D5900602D53C
:10231000204600F0B8FD20684069616CC0F3801071
:10232000090700D460B3204600F078FD20684069BA
:10233000400621D52068143050E8001F21F04001EC
:1023400040E80012002AF5D1E06BA8B16E490165A2
:10235000E06BFEF7BBFF002811D0E06B016D01B010
:10236000BDE8F040084783060FD593060DD52046FB
:10237000BDE8F84000F087BD2046FFF78DFFF8BDAF
:102380002046FFF789FF6564F8BD266B2023012EE8
:102390007DD1C6067BD5D60679D5086848680090F9
:1023A00048694FF00206400641D5E16B0868406875
:1023B0000004000CE8D0A28D8242E5D9E085C8690E
:1023C000B0F5807F2DD020680C3050E8001F21F43C
:1023D000807140E80012002AF5D12068143050E8DE
:1023E000001F21F0010140E80012002AF5D1206809
:1023F000143050E8001F21F0400140E80012002A8C
:10240000F5D184F84230256320680C3050E8001F75
:1024100021F0100140E80012002AF5D1E06BFEF730
:102420000CFF6663A08DE18D401A81B22AE0A08D79
:10243000E18D401A81B2E08D0028A5D00029A3D0FB
:1024400022680C3252E8000F20F4907042E8000736
:10245000002FF5D12068143050E8002F22F001023F
:1024600040E80027002FF5D184F84230256320682A
:102470000C3050E8002F22F0100240E80023002B1F
:10248000F5D166632046FFF706FFF8BDFFE70506B6
:102490002BD5150629D594F841002128F5D1A0683F
:1024A000B0F5805F01D12069B0B1206A411C216282
:1024B000216800784860E08C401E0004000CE08435
:1024C000E3D12068C16821F08001C1602068C16843
:1024D00041F04001C160D8E7206A0088C0F30800DD
:1024E0004860206A801C2062E5E74006CDD5500692
:1024F000CBD5CA68204622F04002CA6084F8413039
:1025000000F046F9C1E700001F2D000870B5040077
:1025100004D094F84100002510B106E0012070BD00
:1025200084F84050204600F023F8242084F841002D
:102530002068C16821F40051C160204600F004FD0C
:102540002068016921F4904101612068416921F00E
:102550002A0141612068C16841F40051C16065648D
:10256000202084F8410084F842006563002070BD9B
:102570002DE9F04186B0064614216846FDF76CFE51
:102580004B49D6F800C04B480222032307254A4F87
:1025900000248C4513D1474914310E6846F01006CB
:1025A0000E60096801F010010591016841F0010118
:1025B0000160006800F001000590580216E03D49F6
:1025C000DFF8F8801031C4451BD10E6846F40036A0
:1025D0000E60096801F400310591016841F00101C4
:1025E0000160006800F0010005900C208DE81500E6
:1025F000CDE9033569463846FEF7ECFF06B0BDE885
:10260000F0812F4FBC45F9D10F6847F480270F6048
:10261000096801F480210591016841F0020101601F
:102620000068694600F0020005904FF440608DE8B4
:102630001500CDE903352348FEF7CCFF234D224892
:102640004FF000672860C5E901744FF48068C5E960
:10265000034880156C61C5E906402C6228466C620F
:10266000FEF716FF08B1FEF7AEF9F563AE63174D3E
:10267000154860353030E5E802074020A5E8110133
:10268000124845F814496030AC61EC612C626C6210
:10269000FEF7FEFE08B1FEF796F9B56300220621AB
:1026A0002720AE63FFF7FCF82720FFF7EBF8A5E73C
:1026B0000010014030380240000002400044004059
:1026C000004800400004024028600240B0020020A0
:1026D00090F84230202B01D00220704721B11AB16E
:1026E0000023036300F0B6BC0120704770477047B9
:1026F0002DE9F843044690F84100984616460D46E9
:10270000202802D00220BDE8F88385B17EB10020E8
:102710006064212084F84100FFF754F8A6848146C4
:10272000E684A0682027B0F5805F02D003E0012096
:10273000E9E7206910B12E4600250EE000260CE0E6
:102740008021204600F0CEFCA8B9C6B116F8010BD6
:1027500021684860E08C401EE084E08C4B464FF0DE
:102760000002CDF800800028EAD14FF04001204659
:1027700000F0B8FC40B184F841700320C3E735F89D
:10278000020BC0F30800E3E784F841700020BAE7C9
:102790007047FEE710B504462DED048B806EFDF703
:1027A0007FFE41EC110B2069616941EC100B51EC8B
:1027B000110B53EC102BFDF701FE41EC180B606F71
:1027C000FDF76EFE41EC110BA068E16841EC100BC7
:1027D00051EC110B53EC102BFDF7F0FD41EC190BF4
:1027E000A06FFDF75DFE41EC110B2068616841ECC4
:1027F000100B51EC110B53EC102BFDF7DFFD53ECDC
:10280000192BFDF734FD53EC182BFDF730FDFDF7C8
:102810005AFEFDF745FE9FED161B53EC112BFDF7FD
:10282000CDFD41EC180B14484068FDF739FE9FEDD3
:10283000131B53EC112BFDF7C1FD53EC182BFDF7C7
:1028400016FDFDF740FE00EE100A0E4910EE100ACC
:10285000884209DA10EE100A0B49884201D3B9EE1A
:10286000040ABDEC048B10BDB1EE040AF9E70000C8
:10287000666666666666E63F800000203333333363
:102880003333D33F0000A0400000A0C00F4810B574
:102890000D4901600721416000214FF40032816041
:1028A000C0E90312D20042610176012242768276AB
:1028B000C17601774177FEF79AFB002803D0BDE887
:1028C0001040FEF780B810BD0064004020010020D9
:1028D0000D4808B5016841F400110160006800224C
:1028E00000F40010009011460C20FEF7D9FF0C20D8
:1028F000FEF7C8FF002211460E20FEF7D1FFBDE80B
:1029000008400E20FEF7BEBF30380240154808B51B
:10291000016841F004010160016801F004010091C7
:10292000016841F080010160016801F080010091BF
:10293000016841F001010160016801F001010091AD
:10294000016841F002010160016801F0020100919B
:10295000016841F008010160006800F00800009083
:1029600008BD00003038024010B586B0002417487A
:10297000009401940294039404944FF080410594D0
:10298000016042F2CF01C0E9011440F22B11C0E90D
:1029900003148461FFF7B4FA08B1FEF714F84FF49A
:1029A0008050009069460948FFF748FB08B1FEF7E0
:1029B0000AF8049404A905480594FFF759FA002879
:1029C00001D0FEF700F806B010BD0000480100205D
:1029D00010B586B000241748009401940294039423
:1029E000049413490594016040F2A311C0E9011455
:1029F00040F2E731C0E903148461FFF781FA08B1BE
:102A0000FDF7E1FF4FF48050009069460948FFF759
:102A100015FB08B1FDF7D7FF049404A905480594F8
:102A2000FFF726FA002801D0FDF7CDFF06B010BD54
:102A300000040040900100200C4810B50A490160D4
:102A40004FF4E1314160002181600C22C160C0E996
:102A500004128161C161FFF759FD002803D0BDE870
:102A60001040FDF7B0BF10BD00100140D80100209C
:102A70000C4810B50A4901604FF4E1314160002172
:102A800081600C22C160C0E904128161C161FFF75D
:102A90003DFD002803D0BDE81040FDF794BF10BDF8
:102AA00000440040200200200C4810B50A49016093
:102AB0004FF461214160002181600C22C160C0E9B6
:102AC00004128161C161FFF721FD002803D0BDE838
:102AD0001040FDF778BF10BD00480040680200209C
:102AE000FEE7FEE70089092141EA40110148FDF7B0
:102AF000F9BE0000200100200089172141EA4011A1
:102B00000148FDF7EFBE0000200100200181C376DF
:102B1000827680EC020A704770477047FEF758BE15
:102B200030B593B030216846FDF796FB14210CA810
:102B3000FDF792FB1D480025016841F080510160BE
:102B4000006800F0805011901948016841F48041FC
:102B500001600068022400F4804011900120009080
:102B6000000401908001CDE9064008AA0420A821B4
:102B700082E813000B906846FEF7AEFF08B172B60C
:102B8000FEE70CA90F2081E831004FF4A0500F9010
:102B90004FF48050109005210CA8FEF7B3FE0028DA
:102BA00001D072B6FEE713B030BD000040380240DD
:102BB000007000400248016841F4700101607047F4
:102BC00088ED00E00148FFF7A8BA000048010020A6
:102BD0000148FFF7A2BA000090010020F0B502689A
:102BE000294C2A4D2A4E2B4F2B4B4FF0804CA042A4
:102BF00009D0604507D0A84205D0B04203D0B84202
:102C000001D0984204D122F0700E4A6842EA0E02C6
:102C1000A0421BD0604519D0A84217D0B04215D0B1
:102C2000B84213D0984211D01C4DA8420ED01C4D72
:102C3000A8420BD01B4DA84208D01B4DA84205D07E
:102C40001A4DA84202D01A4DA84203D122F4407571
:102C5000CA682A434D6922F080022A4302608A68CA
:102C6000C2620A688262A04201D0984201D1096919
:102C70000163012141610169C90703D0016921F0A4
:102C800001010161F0BD00000000014000040040AE
:102C900000080040000C00400004014000400140DA
:102CA000004401400048014000180040001C004062
:102CB0000020004010B5846842EA032224F47F44D7
:102CC0000A432243826010BD826822F070020A43E8
:102CD00042F007018160704710B5036A046A24F06E
:102CE00001040462846924F0F00444EA021423F02D
:102CF0000A020A438461026210BD10B5036A046AC5
:102D000024F010040462846923F0A00324F47044C6
:102D100044EA023243EA01118261016210BD10B53A
:102D2000806B0021C185C184FFF7B6FA10BD70B574
:102D3000846B2068406994F84110C0F3C0100025EE
:102D4000212904D118B1E584204600F08EF82068CE
:102D5000406994F84210C0F38010222904D118B1C0
:102D6000E585204600F05AF8606C40F01000606481
:102D70002046FFF791FA70BD10B50146806B0968D7
:102D800009684FF00002C9052ED4C28501680C31D4
:102D900051E8003F23F4807341E80034002CF5D162
:102DA0000168143151E8003F23F0010341E8003489
:102DB000002CF5D10168143151E8003F23F04003A5
:102DC00041E80034002CF5D1202180F84210016B3D
:102DD000012909D101680C3151E8003F23F01003AB
:102DE00041E80034002CF5D14263016B012902D087
:102DF000FFF77CFC10BD818DFFF74DFA10BD10B5BB
:102E0000806B01214163016B012902D0FFF76FFC48
:102E100010BD818D4908FFF73EFA10BD01680C31E5
:102E200051E8002F22F4907241E80023002BF5D1E5
:102E30000168143151E8002F22F0010241E800231B
:102E4000002BF5D1016B012909D101680C3151E842
:102E5000002F22F0100241E80023002BF5D12021A1
:102E600080F8421000210163704701680C3151E87D
:102E7000002F22F0C00241E80023002BF5D12021D1
:102E800080F84110704708B590F84210222901D00F
:102E9000022008BD82684FF480539A4201D1016933
:102EA00021B1816A9A421BD04AB10AE00268816A64
:102EB0005268C2F308020A80816A891C08E002692C
:102EC00072B10268526802F07F020A70816A491C7E
:102ED0008162C18D491E0904090CC18503D01BE024
:102EE00002685268F1E70168CA6822F02002CA60ED
:102EF0000168CA6822F48072CA6001684A6922F0D7
:102F000001024A61202180F8421000214163026BD6
:102F1000012A03D0FFF7EAFB002008BD0163016826
:102F20000C3151E8002F22F0100241E80023002B61
:102F3000F5D101680A68D20602D50A68496800918D
:102F4000818DFFF7A8F9E7E770B5044600680169CD
:102F5000E26821F44051114301612169A068E269EE
:102F600008436169114308432168CA6849F20C6348
:102F70009A430243CA6020684169A26921F4407102
:102F80001143416131492068884202D0304988426A
:102F900002D1FEF761FD01E0FEF74EFDE26900237C
:102FA000192164253226B2F5004F626828D0A0FBB3
:102FB0000101930F9200FDF705F90146B0FBF5F012
:102FC0006FF01802504301EB800006EB0010B0FBDD
:102FD000F5F000F0F002B1FBF5F002EB0012B1FBEE
:102FE000F5F06FF01803584301EB800006EB00107A
:102FF000B0FBF5F000F00F0021681044886070BD50
:10300000A0FB010192185B41FDF7DCF80146B0FB23
:10301000F5F00201B1FBF5F06FF01803584301EB36
:10302000800006EBC000B0FBF5F000F0F80002EB0A
:103030004002B1FBF5F0584301EB800006EBC00005
:10304000B0FBF5F000F00700D6E7000000100140EB
:103050000014014038B58162044682850020134681
:103060006064222284F84220E56B1B4AEA63E56B28
:103070001A4A2A64E56B1A4AEA64E26B10650A464A
:103080002168E06B091DFEF76DFA20680168406851
:103090000090206948B120680C3050E8001F41F4CE
:1030A000807140E80012002AF5D12068143050E801
:1030B000001F41F0010140E80012002AF5D120680C
:1030C000143050E8001F41F0400140E80012002A8F
:1030D000F5D1002038BD0000792D0008FF2D000833
:1030E0002F2D00082DE9F843984617460D46044653
:1030F000089E24E0701C22D0FEF764FBA0EB0800C1
:10310000B0421AD8CEB12068C168490717D5802DC2
:1031100015D0402D13D00168C94309070FD40168A9
:103120000025406800902046FFF778FE0820606484
:1031300084F840500120BDE8F8830320FBE72068B5
:10314000006835EA000004D00020B842D2D0002048
:10315000F1E70120F9E700000148FFF79FB8000000
:1031600068020020FEE700000FB4054B10B503A96C
:10317000044A029800F012FD10BC5DF814FB000038
:10318000F13E0008A400002003B40198410000981B
:1031900050EAC12018BF04204A0D18BF40F00100BA
:1031A00040F2FF72B2EB515F08BF40F0020001280D
:1031B00008BF052002B070470907090E002804DB8C
:1031C00000F1E02080F80014704700F00F0000F1DB
:1031D000E02080F8141D704770B5C1482DED020B3A
:1031E0002DED0E8B82B0119D25F000449FEDBEDBCE
:1031F0009FEDBFEB84423EDBA4F140511098A1F15A
:103200007F6108430FD0BC48844202DC28D110986B
:1032100030B39DED100B02B0BDEC0E8B02B0BDE8DB
:10322000704000F071BC9DED100B53EC1D2B51EC68
:10323000100BFDF7C3F89DED100B41EC180B53EC90
:103240001E2B51EC100BFDF7B9F853EC182BFDF7C2
:103250000EF841EC100B02B0BDEC0E8B02B070BD4D
:10326000012000F095FC02B0BDEC0E8B02B0BDE871
:10327000704000F05DBCA1489FEDA18B844256DAFE
:103280009DED100BB4F1795F0ADA51EC100BFFF7EA
:103290007BFF042808BF00F05BFC9DED100BDAE714
:1032A00053EC102B51EC100BFDF788F841EC190B87
:1032B00095480621B0EE490AF0EE690A784400F01C
:1032C000A7FB53EC192B51EC100BFDF777F841ECF1
:1032D0001A0B8E48B0EE490AF0EE690A04217844D0
:1032E00000F096FB53EC192B51EC100BFDF766F830
:1032F00053EC182BFCF7BBFF41EC100B51EC1A0BF5
:1033000053EC102BFDF7C0F9CDE900019DED000B4A
:1033100053EC102B9DED100B51EC100BFDF74EF8FC
:103320009DED101B53EC112BFCF7A1FFD2E09DED9E
:10333000100B51EC100B00F0CFFD53EC182BFDF7E8
:103340003AF89FED730BCDE9000153EC102B9DED86
:10335000000B51EC100BFDF731F841EC190B6E48E6
:103360000621B0EE490AF0EE690A784400F050FBFD
:1033700053EC192B51EC100BFDF720F841EC1B0B13
:103380006648B0EE490AF0EE690A0421784400F07C
:103390003FFB53EC192B51EC100BFDF70FF853ECDE
:1033A000182BFCF764FF41EC1C0B51EC190B00F0DF
:1033B000AAFE41EC180B5A489FED5BABA04222DC01
:1033C00053EC1C2B51EC1B0BFDF75EF9CDE9000112
:1033D0009DED000B51EC180B53EC102BFCF7EEFF9E
:1033E00053EC182BFCF743FF53EC1A2BFCF7E6FFCA
:1033F00053EC1D2BFCF7DCFF53EC1E2BFCF7DBFF23
:1034000041EC100B5FE08DED008B002000909DEDF6
:10341000000B51EC180B53EC102BFCF728FF9DED23
:10342000000B41EC1E0B53EC102B51EC100BFCF776
:10343000C5FF53EC192BFCF7BEFF53EC1E2BFDF719
:1034400023F941EC190B53EC1C2B51EC1B0BFDF732
:103450001BF941EC1B0B53EC1A2B51EC190BFCF72D
:10346000ADFF53EC1D2BFCF7A6FF41EC190B53EC01
:103470001A2B51EC180BFCF7A1FF53EC1B2BFCF79C
:103480009DFF53EC192BFCF793FF9DED000B41ECD6
:10349000180B53EC1A2B51EC100BFCF78FFF9FED20
:1034A000249B53EC192BFCF786FF41EC100B51ECDD
:1034B000180B53EC102BFCF77BFF53EC192BFCF78C
:1034C0007AFF41EC100B002D3FF7C5AE51EC100B0D
:1034D00081F0004141EC100BBDE60000000000004F
:1034E0000000F03F00000000075C143326A6913C6A
:1034F000182D4454FB21F93F0000F07F0000E03F0D
:10350000000000000000F03FD8120000E6120000AA
:10351000000000000000E03F2A1200003812000006
:103520003333EF3F000000000000000000000040C7
:10353000182D4454FB21E93F70B59B482DED020B3B
:103540002DED068B079D25F00044A04218DC97481E
:10355000844202DC0AD1069840B19DED060BBDEC19
:10356000068B02B0BDE8704000F0CEBA002DCCBF93
:103570009FED8F0B9FED900BBDEC068B02B070BDE5
:103580008F48A04215DD8F48A042D8BF4FF0FF34CE
:1035900058DD9DED060B51EC100BFFF7F5FD0428EF
:1035A00008BF00F0D5FA9DED060BBDEC068B02B00E
:1035B00070BD9DED060B51EC100B00F08DFCCDE9BC
:1035C000060181489FED828BA0423CDD8248A042EB
:1035D0001FDD00249FED82AB9DED060B53EC1A2BF3
:1035E00051EC100BFCF743FE9DED060B41EC190B63
:1035F00053EC1A2B51EC100BFCF7E0FE53EC182B9C
:10360000FCF7D6FE53EC192BFDF73EF8CDE9060189
:1036100049E09DED060B012453EC182B51EC100BE7
:10362000FCF725FE9DED060B41EC190B53EC182B16
:1036300051EC100BFCF7BCFE53EC192BFDF724F8F2
:10364000CDE906012FE06848A0421FDD02249FED6E
:10365000689B9DED060B53EC192B51EC100BFCF7FE
:10366000ADFE53EC182BFCF702FE9DED060B41EC72
:10367000180B53EC192B51EC100BFCF799FE53EC83
:10368000182BFDF701F8CDE906010CE09DED060BC6
:10369000032453EC102B9FED580B51EC100BFCF74F
:1036A000F3FFCDE906019DED060B53EC102B51EC19
:1036B000100BFCF783FE41EC180B53EC182BFCF7B6
:1036C0007DFE41EC190B4E480621B0EE490AF0EEA2
:1036D000690A784400F09CF953EC182B51EC100B5C
:1036E000FCF76CFE41EC180B4648B0EE490AF0EED0
:1036F000690A0521784400F08BF953EC192B51EC41
:10370000100BFCF75BFE41EC100B51EC180B53EC6B
:10371000102B002C0EDAFCF7AAFD9DED061B53ECD6
:10372000112BFCF74BFE9DED061B53EC112BFCF708
:1037300042FE35E0FCF79BFD9DED061B53EC112B83
:10374000FCF73CFE41EC100B2F48784400EBC40022
:1037500090ED001B51EC100B53EC112BFCF728FEE5
:103760009DED061B53EC112BFCF722FE41EC100BD8
:103770002648784400EBC40090ED001B51EC100B80
:1037800053EC112BFCF717FE41EC100B002DA2BFE0
:10379000BDEC068B02B070BD51EC100B81F0004106
:1037A00041EC100B01E70000000010440000F07F26
:1037B000182D4454FB21F93F182D4454FB21F9BF27
:1037C0000000DC3F0000203E0000F33F000000004E
:1037D000000000000000F03F0000E63F0000000095
:1037E00000000000000000400080034000000000D6
:1037F000000000000000F83F000000000000F0BFE3
:103800007A0F0000300F0000BA0E0000720E0000A8
:1038100070B56F4E2DED040B2DED048B82B0DDF8ED
:1038200024C0DDE907235C422CF000411C4341EA3F
:10383000D474069D22F00040B44205D86C422C435B
:1038400040EAD474B4420BD99DED081B9DED060BE4
:1038500002B0BDEC048B04B0BDE8704000F05EB96E
:10386000ACF14054A4F17F641C430BD0022404EA61
:10387000AC7444EAD27405439FED578B9FED582BEF
:1038800007D015E09DED060B51EC100B00F0E6FAA9
:1038900042E0002C11BF012C9DED060B02B0BDECE7
:1038A000048B04BF04B070BD022C38D0032C3BD075
:1038B0000B439FED4D1B9FED4E0B0AD0B14218D12B
:1038C000B04209D121F0804120F080400991079059
:1038D0000FE0002A15DA10E0474B7B44002C08BFAC
:1038E00093ED000B0DD0012C10D0022C17D0032C1F
:1038F0001AD0B0421DD1002A03DAB0EE410AF0EE30
:10390000610A02B0BDEC048B04B070BD93ED000BF6
:1039100051EC100B81F0004141EC100BF1E7B0EEDF
:10392000480AF0EE680AECE7B0EE420AF0EE620AEE
:10393000E7E7401A00159FED329B3C28C8BF8DED8C
:10394000000B17DCBCF1000FBCBF10F13C0F8DED7C
:10395000009B0FDB9DED080B53EC102B9DED060B30
:1039600051EC100BFCF790FE00F0B6FA00F076FA7E
:10397000CDE90001B4B1012C10D0022C9FED220B37
:1039800053EC102B9DED000B51EC100B19D0FCF7F4
:103990000FFD53EC182BFCF70BFDBDE7019880F0F1
:1039A000004001909DED000B53EC192B51EC100BD6
:1039B000FCF7DAFE04BF022000F0EAF89DED000BF0
:1039C0009FE7FCF7F5FC53EC182BFCF7F4FCA3E79E
:1039D0000000F07F00000000182D4454FB21094036
:1039E000182D4454FB2109C0182D4454FB21F9BF64
:1039F000182D4454FB21F93FA20D000000000000E7
:103A00000000000000000000075C143326A6A13C63
:103A100070B504462DED028B4D1E00EBC500B0EED7
:103A2000408AF0EE608A90ED000B35F0060017D06A
:103A300053EC182B51EC100BFCF7C0FC41EC100BB5
:103A40006D1E04EBC50090ED001B51EC100B53EC08
:103A5000112BFCF70CFC41EC100B35F00600E7D104
:103A6000022D36D0042D1CD0062D1CBFBDEC028BC0
:103A700070BD53EC182B51EC100BFCF79FFC94ED30
:103A80000A1B53EC112BFCF7F2FB53EC182BFCF741
:103A900095FC94ED081B53EC112BFCF7E8FB41EC73
:103AA000100B53EC182B51EC100BFCF787FC94ED2A
:103AB000061B53EC112BFCF7DAFB53EC182BFCF72D
:103AC0007DFC94ED040B53EC102BFCF7D0FB41EC88
:103AD000100B53EC182B51EC100BFCF76FFC94ED12
:103AE000021B53EC112BFCF7C2FB53EC182BFCF719
:103AF00065FC94ED001B53EC112BFCF7B8FBBDECFF
:103B0000028B41EC100B70BD10B553EC102B51EC37
:103B1000100BFCF7ACFB41EC100B10BD10B553ECD7
:103B2000112B51EC100BFCF7A2FB41EC100B10BD5C
:103B30009FED050B10B553EC102B51EC100BFCF75F
:103B4000A3FD41EC100B10BD0000000000000000C0
:103B50009FED050B10B553EC102B51EC100BFCF73F
:103B60002DFC41EC100B10BD000000000000001007
:103B700002E008C8121F08C1002AFAD17047704736
:103B8000002001E001C1121F002AFBD17047000094
:103B90000149086070470000A80000202DE9FF4F90
:103BA0008DB09B460F460446002606E025280BD024
:103BB0005A460F999047641C761C20780028F5D14E
:103BC00011B03046BDE8F08F0025A8460122984983
:103BD00000E0054314F8013F203B02FA03F00842DD
:103BE000F7D120782E2817D114F8010F45F00405DD
:103BF0002A280ED06FF02F022078A0F13001092979
:103C00000AD808EB880102EB410100EB0108641CB3
:103C1000F2E757F8048B641C20786C280DD004DC84
:103C20004C2812D06A2811D104E074280DD07A28CB
:103C30000CD10AE045F4001507E0617845F48015E1
:103C4000814202D1641C05F58015641C2078692826
:103C500044D008DC0028B3D0582867D063280FD0A0
:103C6000642808D13AE0702865D0732812D07528EE
:103C70005AD078285AD05A460F999047761CD5E0EA
:103C800017F8040B8DF8000000208DF80100E946BC
:103C9000012003E057F8049B4FF0FF3069074FF015
:103CA000000501D40AE06D1C45450DDA8542FADBBA
:103CB00019F805100029F6D106E06D1C8542FCDBE1
:103CC00019F805100029F8D12E4404E019F8010B69
:103CD0005A460F9990476D1EF8D2A7E00A2000219E
:103CE000CDE90801C5F3025002280CD001CFC1175D
:103CF000021E71F100020CDA0023D0EB030063EB2B
:103D000001012D2208E0FF1D27F00707F7E8020157
:103D1000EEE72A0504D52B228DF8282001223CE06D
:103D2000EA073AD02022F7E70A2000E0102000211D
:103D3000CDE9080107E01020002145F00405CDE998
:103D400008014FF00808C5F30250022810D001CF37
:103D500000214FF0000A2A0720D52278702A0DD0C2
:103D6000DDE908C38CF0100C5CEA030C0CD015E004
:103D7000FF1D27F00707F7E80201EAE740228DF868
:103D800028204FF0010A0CE050EA010306D030234E
:103D90008DF828308DF82920022292462278582A60
:103DA00004D024A20DF120090B9209E026A2F9E724
:103DB000DDE90823FCF706FA0B9B9B5C09F8013D43
:103DC00050EA0102F4D1ADEB0900203008906807F9
:103DD00001D44FF001080899884503DD0898A8EB45
:103DE000000000E000208046002506E00AA85A46B0
:103DF000405D0F9990476D1C761C5545F6DB04E03D
:103E000030205A460F999047761CB8F10001A8F16E
:103E10000108F5DC05E019F8010B5A460F999047A7
:103E2000761C0899481E08900029F4DC641CC4E63E
:103E30000928010030313233343536373839616280
:103E40006364656600000000303132333435363744
:103E500038394142434445460000000010B541EC6A
:103E6000100BFFF769FB51EC100B10BD2DE9F04171
:103E7000144C05460F46207800F00F06314612A07C
:103E8000FFF772F9092E0FD0072E14D0152E09D185
:103E9000E06900EE100A85ED0A0A206A00EE100AB9
:103EA00085ED0B0ABDE8F081E0692862B866206AFA
:103EB0006862F866F6E7E0692863F866206A686376
:103EC0003867EFE7E4000020636F6D6D616E643A60
:103ED000307825580D0A000082B0CDE9000121F0AC
:103EE000004001909DED000B02B051EC100B7047AB
:103EF00013B54FF47A73012269460248FEF7F8FBC6
:103F000000981CBDD80100202DE9F04105461F484E
:103F1000C06B006840681E4CC0F5807022689042FB
:103F200031D01C48815C521CD01702EB106020F08D
:103F3000FF00101A20601848FCF765FD00281ADD04
:103F4000154F164904F10C02B86851F82060A7F12A
:103F50001800111F90EC040A081F00F05BF894EDA4
:103F6000010A10EE100AA8672EB107F13C01304695
:103F7000FA6AFCF758F9BDE8F0414FF48072054940
:103F80000248FEF7A5BBBDE8F081000068020020F2
:103F90001400002014050020D803002094410008DC
:103FA000FDF71EFCFEF7BCFDFEF7B0FCFEF790FC33
:103FB000FEF76CFCFEF7D8FCFEF70AFDFEF73CFDB1
:103FC000FEF756FDFEF770FDFCF750FC0B48FDF7C1
:103FD00001F90B48FDF7F2FF0A48FDF7EFFF012357
:103FE0000622DFED090AB0EE000A05210748FEF7B8
:103FF0008DFD074C2068FFF787FFFBE720010020BD
:10400000480100209001002000007042AC00002018
:104010000000002070B506462DED0A8BB0EE60AAB8
:10402000B0EE40BA2AEE0A0AB0EE418AB7EE009A24
:10403000F0EE00AA08EE080AF0EE498A14460D4692
:10404000F0EE619A40EE6A8A18EE900AFCF728FAC0
:104050002BEE0A0A41EC1C0B08EE290A20EE2A0A74
:1040600010EE100AFCF71CFA41EC100BB0EE4C1AE3
:10407000F0EE6C1AFFF7CCFB51EC100BFCF723FAB7
:1040800000EE100A86ED000A2BEE080A0AEE690A15
:1040900020EE2A0A10EE100AFCF702FA41EC100B8F
:1040A000FFF79AF851EC100BFCF70DFA00EE100A2E
:1040B00085ED000A28EE080A09EEA90A00EE6A9AC0
:1040C00019EE100AFCF7ECF92BEE290A41EC1C0B57
:1040D0000AEE080A20EE2A0A10EE100AFCF7E0F9B0
:1040E00041EC100BB0EE4C1AF0EE6C1AFFF790FB9F
:1040F00051EC100BFCF7E7F900EE100A84ED000A12
:10410000BDEC0A8B70BD00B52DED048B83B041EC86
:10411000190BFCF753FB41EC180B18EE100A18EEC4
:10412000901A8DED008B002818BF0120084320F065
:104130000040C0F17F6000F1E040C00F14D019EEE4
:10414000101A19EE900A8DED009B002918BF01216D
:10415000084320F00040C0F17F6000F1E040C00F54
:1041600004BF0120FFF714FD51EC180B03B0BDECA8
:10417000048B00BD0006101600061016000000009B
:104180000000000001020304060708090000000007
:104190000102030400000000000000000000000015
:1041A000000000000000000000000000000000000F
:1041B00000000000000000000000000000000000FF
:1041C00000000000000000000000000000000000EF
:1041D00000000000000000000000000000000000DF
:1041E00000000000000000000000000000000000CF
:1041F00000000000000000000000000000000000BF
:1042000000000000000000000000000000000000AE
:10421000000000000000000000000000000000009E
:10422000000000000000000000000000000000008E
:10423000000000000000000000000000000000007E
:10424000000000000000000000000000000000006E
:10425000000000000000000000000000000000005E
:10426000000000000000000000000000000000004E
:10427000000000000000000000000000000000003E
:10428000000000000000000000000000000000002E
:104290000000000070030020A80300201406002086
:1042A000000000000000000000000000000000000E
:1042B00000000000000000000000000000000000FE
:1042C00000000000000000000000000000000000EE
:1042D000000000006806002024000020CC0600201A
:1042E0002C000020DA060020E6060020F20600205E
:1042F000FE0600200E0700203E0700208807002051
:104300003000002095070020AD070020C5070020E1
:10431000DF070020EB070020F7070020030800203C
:10432000130800201F0800202F0800205308002039
:104330005F0800206B080020A7080020CB080020A1
:10434000E3080020370000203F000020F308002091
:10435000FF080020470000204F00002057000020E9
:10436000130900205B000020120A00201E0A002012
:104370002E0A00205E0A00206B0A00206300002045
:10438000840A00206B0000209C0A0020000000002E
:1043900000000000B70A0020000B00200000000011
:1043A000090B00206F000020700000207300002027
:1043B0007B00002000000000000000003A0B0020FD
:1043C00000000000000000000000000000000000ED
:1043D00000000000000000000000000000000000DD
:1043E00000000000000000000000000000000000CD
:1043F00000000000000000000000000000000000BD
:1044000000000000000000000000000000000000AC
:10441000000000000000000000000000000000009C
:1044200000000000000000007A0B002000000000E7
:10443000000000000000000000000000000000007C
:10444000000000000000000000000000000000006C
:10445000000000000000000000000000000000005C
:10446000000000000000000000000000000000004C
:10447000000000000000000000000000000000003C
:10448000000000000000000000000000000000002C
:10449000000000000000000000000000000000001C
:1044A000000000000000000000000000000000000C
:1044B00000000000000000000000000000000000FC
:1044C00000000000000000000000000000000000EC
:1044D00000000000000000000000000000000000DC
:1044E00000000000000000000000000000000000CC
:1044F00000000000000000000000000000000000BC
:1045000000000000000000000000000000000000AB
:10451000000000000000000000000000000000009B
:10452000000000000000000000000000000000008B
:10453000000000000000000000000000000000007B
:10454000000000000000000000000000000000006B
:10455000000000000000000000000000000000005B
:10456000000000000000000000000000000000004B
:10457000000000000000000000000000000000003B
:10458000000000000000000000000000000000002B
:104590000000000000000000555555555555C53F19
:1045A0007D6FEB0312D6D4BF5544880E55C1C93F69
:1045B0003B8F68B52882A4BF88B20175E0EF493F00
:1045C00009F7FD0DE13D023F4B2D8A1C273A03C040
:1045D000C88A599CE52A004059018D1B6C06E6BF2C
:1045E00082922EB1C5B8B33F4FBB610567ACDD3FCA
:1045F000182D4454FB21E93F9BF681D20B73EF3F0A
:10460000182D4454FB21F93FE2652F227F2B7A3C81
:10461000075C143326A6813CBDCBF07A8807703C3A
:10462000075C143326A6913CC4EB98999999C9BFAD
:10463000711623FEC671BCBF6D9A74AFF2B0B3BFE2
:104640009AFDDE522DDEADBF2F6C6A2C44B4A2BFA2
:104650000D5555555555D53FFF8300922449C23F0E
:104660006E204CC5CD45B73F513DD0A0660DB13F42
:10467000EB0D76244B7BA93F11DA22E33AAD903F54
:104680000000000000000000A84600080000002014
:10469000AC000000703B000854470008AC0000204C
:1046A0007C0F0000803B0008A80B002001000000E8
:1046B00010000000000000000024F40000000000D2
:1046C00000000000000000000000000000000000EA
:1046D00000000000000000000000000000000000DA
:1046E00000000000000000000000000000000000CA
:1046F00000000000000000000000000000000000BA
:1047000000000000000000000000000000000000A9
:104710000000000000000000000000000000000099
:104720000000000000000000000000000000000089
:104730000000000000000000000000000000000079
:104740000000000000000000000000000000000069
:044750000000000065
:040000050800018965
:00000001FF
